{
  "contractName": "Counter",
  "abi": [
    {
      "inputs": [
        {
          "internalType": "uint256",
          "name": "num",
          "type": "uint256"
        }
      ],
      "stateMutability": "nonpayable",
      "type": "constructor"
    },
    {
      "inputs": [],
      "name": "owner",
      "outputs": [
        {
          "internalType": "address",
          "name": "",
          "type": "address"
        }
      ],
      "stateMutability": "view",
      "type": "function"
    },
    {
      "inputs": [],
      "name": "getCounter",
      "outputs": [
        {
          "internalType": "uint256",
          "name": "",
          "type": "uint256"
        }
      ],
      "stateMutability": "view",
      "type": "function"
    },
    {
      "inputs": [
        {
          "internalType": "uint256",
          "name": "amount",
          "type": "uint256"
        }
      ],
      "name": "increaseCounter",
      "outputs": [],
      "stateMutability": "nonpayable",
      "type": "function"
    },
    {
      "inputs": [
        {
          "internalType": "uint256",
          "name": "amount",
          "type": "uint256"
        }
      ],
      "name": "decreaseCounter",
      "outputs": [
        {
          "internalType": "bool",
          "name": "",
          "type": "bool"
        }
      ],
      "stateMutability": "nonpayable",
      "type": "function"
    }
  ],
  "bytecode": "0x608060405234801561001057600080fd5b506040516101ef3803806101ef8339818101604052602081101561003357600080fd5b5051600180546001600160a01b03191633179055600055610196806100596000396000f3fe608060405234801561001057600080fd5b506004361061004c5760003560e01c80638ada066e146100515780638da5cb5b1461006b5780639e80c0741461008f578063b24f03af146100ae575b600080fd5b6100596100df565b60408051918252519081900360200190f35b6100736100e5565b604080516001600160a01b039092168252519081900360200190f35b6100ac600480360360208110156100a557600080fd5b50356100f4565b005b6100cb600480360360208110156100c457600080fd5b50356100ff565b604080519115158252519081900360200190f35b60005490565b6001546001600160a01b031690565b600080549091019055565b60008160005411610150576040805162461bcd60e51b8152602060048201526016602482015275043616e6e6f74206265206c6f776572207468616e20360541b604482015290519081900360640190fd5b506000805491909103905560019056fea2646970667358221220afbdaa394c57d9b5c0238101526610717b5dc407b3b1888cd6d84557118ac0a764736f6c63430006060033",
  "source": "pragma solidity >=0.5.0<= 0.7.0;\n\ncontract Counter {\n  //it keeps a count to demonstrate stage changes\n  uint private count;\n  address private _owner;\n\n  constructor(uint num) public  {\n    _owner = msg.sender;\n    count = num;\n  }\n\n\n  function owner() public view returns (address) {\n    return _owner;\n  }\n\n  // getter\n  function getCounter() public view returns (uint) {\n    return count;\n  }\n\n  //and it can add to a count\n  function increaseCounter(uint256 amount) public {\n    count = count + amount;\n  }\n\n  //We'll upgrade the contract with this function after deploying it\n  //Function to decrease the counter\n  function decreaseCounter(uint256 amount) public returns (bool) {\n    require(count > amount, \"Cannot be lower than 0\");\n    count = count - amount;\n    return true;\n  }\n\n}\n",
  "sourcePath": "/home/koshik/Documents/projects/arbchain/web2/contracts/contracts/Counter.sol",
  "compiler": {
    "name": "solc",
    "version": "0.6.6+commit.6c089d02.Emscripten.clang"
  },
  "schemaVersion": "3.0.23",
  "updatedAt": "2020-08-18T06:52:37.286Z",
  "devdoc": {
    "methods": {}
  },
  "userdoc": {
    "methods": {}
  }
}